{
  "_format": "hh-sol-artifact-1",
  "contractName": "Escrow",
  "sourceName": "contracts/Escrow.sol",
  "abi": [
    {
      "inputs": [
        {
          "internalType": "address",
          "name": "_nftAddress",
          "type": "address"
        },
        {
          "internalType": "address payable",
          "name": "_seller",
          "type": "address"
        },
        {
          "internalType": "address",
          "name": "_inspector",
          "type": "address"
        },
        {
          "internalType": "address",
          "name": "_lender",
          "type": "address"
        },
        {
          "internalType": "address",
          "name": "_appraiser",
          "type": "address"
        }
      ],
      "stateMutability": "nonpayable",
      "type": "constructor"
    },
    {
      "inputs": [
        {
          "internalType": "uint256",
          "name": "",
          "type": "uint256"
        }
      ],
      "name": "appraisalPassed",
      "outputs": [
        {
          "internalType": "bool",
          "name": "",
          "type": "bool"
        }
      ],
      "stateMutability": "view",
      "type": "function"
    },
    {
      "inputs": [],
      "name": "appraiser",
      "outputs": [
        {
          "internalType": "address",
          "name": "",
          "type": "address"
        }
      ],
      "stateMutability": "view",
      "type": "function"
    },
    {
      "inputs": [
        {
          "internalType": "uint256",
          "name": "",
          "type": "uint256"
        },
        {
          "internalType": "address",
          "name": "",
          "type": "address"
        }
      ],
      "name": "approval",
      "outputs": [
        {
          "internalType": "bool",
          "name": "",
          "type": "bool"
        }
      ],
      "stateMutability": "view",
      "type": "function"
    },
    {
      "inputs": [
        {
          "internalType": "uint256",
          "name": "_nftID",
          "type": "uint256"
        }
      ],
      "name": "approveSale",
      "outputs": [],
      "stateMutability": "nonpayable",
      "type": "function"
    },
    {
      "inputs": [
        {
          "internalType": "uint256",
          "name": "",
          "type": "uint256"
        }
      ],
      "name": "buyer",
      "outputs": [
        {
          "internalType": "address",
          "name": "",
          "type": "address"
        }
      ],
      "stateMutability": "view",
      "type": "function"
    },
    {
      "inputs": [
        {
          "internalType": "uint256",
          "name": "_nftID",
          "type": "uint256"
        }
      ],
      "name": "depositEarnest",
      "outputs": [],
      "stateMutability": "payable",
      "type": "function"
    },
    {
      "inputs": [
        {
          "internalType": "uint256",
          "name": "",
          "type": "uint256"
        }
      ],
      "name": "escrowAmount",
      "outputs": [
        {
          "internalType": "uint256",
          "name": "",
          "type": "uint256"
        }
      ],
      "stateMutability": "view",
      "type": "function"
    },
    {
      "inputs": [
        {
          "internalType": "uint256",
          "name": "_nftID",
          "type": "uint256"
        }
      ],
      "name": "finaliseSale",
      "outputs": [],
      "stateMutability": "nonpayable",
      "type": "function"
    },
    {
      "inputs": [],
      "name": "getBalance",
      "outputs": [
        {
          "internalType": "uint256",
          "name": "",
          "type": "uint256"
        }
      ],
      "stateMutability": "view",
      "type": "function"
    },
    {
      "inputs": [
        {
          "internalType": "uint256",
          "name": "",
          "type": "uint256"
        }
      ],
      "name": "inspectionPassed",
      "outputs": [
        {
          "internalType": "bool",
          "name": "",
          "type": "bool"
        }
      ],
      "stateMutability": "view",
      "type": "function"
    },
    {
      "inputs": [],
      "name": "inspector",
      "outputs": [
        {
          "internalType": "address",
          "name": "",
          "type": "address"
        }
      ],
      "stateMutability": "view",
      "type": "function"
    },
    {
      "inputs": [
        {
          "internalType": "uint256",
          "name": "",
          "type": "uint256"
        }
      ],
      "name": "isListed",
      "outputs": [
        {
          "internalType": "bool",
          "name": "",
          "type": "bool"
        }
      ],
      "stateMutability": "view",
      "type": "function"
    },
    {
      "inputs": [],
      "name": "lender",
      "outputs": [
        {
          "internalType": "address",
          "name": "",
          "type": "address"
        }
      ],
      "stateMutability": "view",
      "type": "function"
    },
    {
      "inputs": [
        {
          "internalType": "uint256",
          "name": "_nftID",
          "type": "uint256"
        },
        {
          "internalType": "address",
          "name": "_buyer",
          "type": "address"
        },
        {
          "internalType": "uint256",
          "name": "_purchasePrice",
          "type": "uint256"
        },
        {
          "internalType": "uint256",
          "name": "_escrowAmount",
          "type": "uint256"
        }
      ],
      "name": "list",
      "outputs": [],
      "stateMutability": "payable",
      "type": "function"
    },
    {
      "inputs": [],
      "name": "nftAddress",
      "outputs": [
        {
          "internalType": "address",
          "name": "",
          "type": "address"
        }
      ],
      "stateMutability": "view",
      "type": "function"
    },
    {
      "inputs": [
        {
          "internalType": "uint256",
          "name": "",
          "type": "uint256"
        }
      ],
      "name": "purchasePrice",
      "outputs": [
        {
          "internalType": "uint256",
          "name": "",
          "type": "uint256"
        }
      ],
      "stateMutability": "view",
      "type": "function"
    },
    {
      "inputs": [],
      "name": "seller",
      "outputs": [
        {
          "internalType": "address payable",
          "name": "",
          "type": "address"
        }
      ],
      "stateMutability": "view",
      "type": "function"
    },
    {
      "inputs": [
        {
          "internalType": "uint256",
          "name": "_nftID",
          "type": "uint256"
        },
        {
          "internalType": "bool",
          "name": "_appraised",
          "type": "bool"
        }
      ],
      "name": "updateAppraisalStatus",
      "outputs": [],
      "stateMutability": "nonpayable",
      "type": "function"
    },
    {
      "inputs": [
        {
          "internalType": "uint256",
          "name": "_nftID",
          "type": "uint256"
        },
        {
          "internalType": "bool",
          "name": "_passed",
          "type": "bool"
        }
      ],
      "name": "updateInspectionStatus",
      "outputs": [],
      "stateMutability": "nonpayable",
      "type": "function"
    },
    {
      "stateMutability": "payable",
      "type": "receive"
    }
  ],
  "bytecode": "0x60806040523480156200001157600080fd5b5060405162001c5b38038062001c5b833981810160405281019062000037919062000235565b846000806101000a81548173ffffffffffffffffffffffffffffffffffffffff021916908373ffffffffffffffffffffffffffffffffffffffff16021790555083600160006101000a81548173ffffffffffffffffffffffffffffffffffffffff021916908373ffffffffffffffffffffffffffffffffffffffff16021790555082600260006101000a81548173ffffffffffffffffffffffffffffffffffffffff021916908373ffffffffffffffffffffffffffffffffffffffff16021790555081600360006101000a81548173ffffffffffffffffffffffffffffffffffffffff021916908373ffffffffffffffffffffffffffffffffffffffff16021790555080600460006101000a81548173ffffffffffffffffffffffffffffffffffffffff021916908373ffffffffffffffffffffffffffffffffffffffff1602179055505050505050620002bd565b600080fd5b600073ffffffffffffffffffffffffffffffffffffffff82169050919050565b6000620001b8826200018b565b9050919050565b620001ca81620001ab565b8114620001d657600080fd5b50565b600081519050620001ea81620001bf565b92915050565b6000620001fd826200018b565b9050919050565b6200020f81620001f0565b81146200021b57600080fd5b50565b6000815190506200022f8162000204565b92915050565b600080600080600060a0868803121562000254576200025362000186565b5b60006200026488828901620001d9565b955050602062000277888289016200021e565b94505060406200028a88828901620001d9565b93505060606200029d88828901620001d9565b9250506080620002b088828901620001d9565b9150509295509295909350565b61198e80620002cd6000396000f3fe6080604052600436106101185760003560e01c806366465096116100a0578063c00b44c711610064578063c00b44c7146103e4578063c9f0ec7e1461040d578063e740f77014610429578063ed2cee9e14610445578063fcce4883146104705761011f565b806366465096146102ed57806377fbc4ae146103165780639d0e5fd614610353578063b848de351461037c578063bcead63e146103b95761011f565b80634dd4acaf116100e75780634dd4acaf146101ce578063555624ff1461020b5780635bf8633a146102485780635d19e56c146102735780635eed5fff146102b05761011f565b806308551a531461012457806312065fe01461014f57806314a72feb1461017a57806316ae94b1146101a35761011f565b3661011f57005b600080fd5b34801561013057600080fd5b506101396104ad565b604051610146919061110a565b60405180910390f35b34801561015b57600080fd5b506101646104d3565b604051610171919061113e565b60405180910390f35b34801561018657600080fd5b506101a1600480360381019061019c919061118a565b6104db565b005b3480156101af57600080fd5b506101b8610547565b6040516101c591906111d8565b60405180910390f35b3480156101da57600080fd5b506101f560048036038101906101f0919061118a565b61056d565b60405161020291906111d8565b60405180910390f35b34801561021757600080fd5b50610232600480360381019061022d919061118a565b6105a0565b60405161023f919061120e565b60405180910390f35b34801561025457600080fd5b5061025d6105c0565b60405161026a91906111d8565b60405180910390f35b34801561027f57600080fd5b5061029a6004803603810190610295919061118a565b6105e4565b6040516102a7919061113e565b60405180910390f35b3480156102bc57600080fd5b506102d760048036038101906102d2919061118a565b6105fc565b6040516102e4919061120e565b60405180910390f35b3480156102f957600080fd5b50610314600480360381019061030f9190611255565b61061c565b005b34801561032257600080fd5b5061033d6004803603810190610338919061118a565b6106db565b60405161034a919061113e565b60405180910390f35b34801561035f57600080fd5b5061037a60048036038101906103759190611255565b6106f3565b005b34801561038857600080fd5b506103a3600480360381019061039e91906112c1565b6107b2565b6040516103b0919061120e565b60405180910390f35b3480156103c557600080fd5b506103ce6107e1565b6040516103db91906111d8565b60405180910390f35b3480156103f057600080fd5b5061040b6004803603810190610406919061118a565b610807565b005b61042760048036038101906104229190611301565b610dea565b005b610443600480360381019061043e919061118a565b610fbd565b005b34801561045157600080fd5b5061045a611083565b60405161046791906111d8565b60405180910390f35b34801561047c57600080fd5b506104976004803603810190610492919061118a565b6110a9565b6040516104a4919061120e565b60405180910390f35b600160009054906101000a900473ffffffffffffffffffffffffffffffffffffffff1681565b600047905090565b6001600b600083815260200190815260200160002060003373ffffffffffffffffffffffffffffffffffffffff1673ffffffffffffffffffffffffffffffffffffffff16815260200190815260200160002060006101000a81548160ff02191690831515021790555050565b600460009054906101000a900473ffffffffffffffffffffffffffffffffffffffff1681565b60086020528060005260406000206000915054906101000a900473ffffffffffffffffffffffffffffffffffffffff1681565b600a6020528060005260406000206000915054906101000a900460ff1681565b60008054906101000a900473ffffffffffffffffffffffffffffffffffffffff1681565b60076020528060005260406000206000915090505481565b60096020528060005260406000206000915054906101000a900460ff1681565b600460009054906101000a900473ffffffffffffffffffffffffffffffffffffffff1673ffffffffffffffffffffffffffffffffffffffff163373ffffffffffffffffffffffffffffffffffffffff16146106ac576040517f08c379a00000000000000000000000000000000000000000000000000000000081526004016106a3906113eb565b60405180910390fd5b80600a600084815260200190815260200160002060006101000a81548160ff0219169083151502179055505050565b60066020528060005260406000206000915090505481565b600260009054906101000a900473ffffffffffffffffffffffffffffffffffffffff1673ffffffffffffffffffffffffffffffffffffffff163373ffffffffffffffffffffffffffffffffffffffff1614610783576040517f08c379a000000000000000000000000000000000000000000000000000000000815260040161077a9061147d565b60405180910390fd5b806009600084815260200190815260200160002060006101000a81548160ff0219169083151502179055505050565b600b6020528160005260406000206020528060005260406000206000915091509054906101000a900460ff1681565b600360009054906101000a900473ffffffffffffffffffffffffffffffffffffffff1681565b6009600082815260200190815260200160002060009054906101000a900460ff16610867576040517f08c379a000000000000000000000000000000000000000000000000000000000815260040161085e9061150f565b60405180910390fd5b600a600082815260200190815260200160002060009054906101000a900460ff166108c7576040517f08c379a00000000000000000000000000000000000000000000000000000000081526004016108be906115a1565b60405180910390fd5b600b600082815260200190815260200160002060006008600084815260200190815260200160002060009054906101000a900473ffffffffffffffffffffffffffffffffffffffff1673ffffffffffffffffffffffffffffffffffffffff1673ffffffffffffffffffffffffffffffffffffffff16815260200190815260200160002060009054906101000a900460ff16610997576040517f08c379a000000000000000000000000000000000000000000000000000000000815260040161098e9061160d565b60405180910390fd5b600b60008281526020019081526020016000206000600160009054906101000a900473ffffffffffffffffffffffffffffffffffffffff1673ffffffffffffffffffffffffffffffffffffffff1673ffffffffffffffffffffffffffffffffffffffff16815260200190815260200160002060009054906101000a900460ff16610a56576040517f08c379a0000000000000000000000000000000000000000000000000000000008152600401610a4d90611679565b60405180910390fd5b600b60008281526020019081526020016000206000600360009054906101000a900473ffffffffffffffffffffffffffffffffffffffff1673ffffffffffffffffffffffffffffffffffffffff1673ffffffffffffffffffffffffffffffffffffffff16815260200190815260200160002060009054906101000a900460ff16610b15576040517f08c379a0000000000000000000000000000000000000000000000000000000008152600401610b0c906116e5565b60405180910390fd5b600b60008281526020019081526020016000206000600460009054906101000a900473ffffffffffffffffffffffffffffffffffffffff1673ffffffffffffffffffffffffffffffffffffffff1673ffffffffffffffffffffffffffffffffffffffff16815260200190815260200160002060009054906101000a900460ff16610bd4576040517f08c379a0000000000000000000000000000000000000000000000000000000008152600401610bcb906116e5565b60405180910390fd5b6006600082815260200190815260200160002054471015610c2a576040517f08c379a0000000000000000000000000000000000000000000000000000000008152600401610c2190611777565b60405180910390fd5b60006005600083815260200190815260200160002060006101000a81548160ff0219169083151502179055506000600160009054906101000a900473ffffffffffffffffffffffffffffffffffffffff1673ffffffffffffffffffffffffffffffffffffffff1647604051610c9e906117c8565b60006040518083038185875af1925050503d8060008114610cdb576040519150601f19603f3d011682016040523d82523d6000602084013e610ce0565b606091505b5050905080610d24576040517f08c379a0000000000000000000000000000000000000000000000000000000008152600401610d1b90611829565b60405180910390fd5b60008054906101000a900473ffffffffffffffffffffffffffffffffffffffff1673ffffffffffffffffffffffffffffffffffffffff166323b872dd306008600086815260200190815260200160002060009054906101000a900473ffffffffffffffffffffffffffffffffffffffff16856040518463ffffffff1660e01b8152600401610db493929190611849565b600060405180830381600087803b158015610dce57600080fd5b505af1158015610de2573d6000803e3d6000fd5b505050505050565b600160009054906101000a900473ffffffffffffffffffffffffffffffffffffffff1673ffffffffffffffffffffffffffffffffffffffff163373ffffffffffffffffffffffffffffffffffffffff1614610e7a576040517f08c379a0000000000000000000000000000000000000000000000000000000008152600401610e71906118cc565b60405180910390fd5b60008054906101000a900473ffffffffffffffffffffffffffffffffffffffff1673ffffffffffffffffffffffffffffffffffffffff166323b872dd3330876040518463ffffffff1660e01b8152600401610ed793929190611849565b600060405180830381600087803b158015610ef157600080fd5b505af1158015610f05573d6000803e3d6000fd5b5050505060016005600086815260200190815260200160002060006101000a81548160ff021916908315150217905550816006600086815260200190815260200160002081905550806007600086815260200190815260200160002081905550826008600086815260200190815260200160002060006101000a81548173ffffffffffffffffffffffffffffffffffffffff021916908373ffffffffffffffffffffffffffffffffffffffff16021790555050505050565b806008600082815260200190815260200160002060009054906101000a900473ffffffffffffffffffffffffffffffffffffffff1673ffffffffffffffffffffffffffffffffffffffff163373ffffffffffffffffffffffffffffffffffffffff161461105f576040517f08c379a000000000000000000000000000000000000000000000000000000000815260040161105690611938565b60405180910390fd5b600760008381526020019081526020016000205434101561107f57600080fd5b5050565b600260009054906101000a900473ffffffffffffffffffffffffffffffffffffffff1681565b60056020528060005260406000206000915054906101000a900460ff1681565b600073ffffffffffffffffffffffffffffffffffffffff82169050919050565b60006110f4826110c9565b9050919050565b611104816110e9565b82525050565b600060208201905061111f60008301846110fb565b92915050565b6000819050919050565b61113881611125565b82525050565b6000602082019050611153600083018461112f565b92915050565b600080fd5b61116781611125565b811461117257600080fd5b50565b6000813590506111848161115e565b92915050565b6000602082840312156111a05761119f611159565b5b60006111ae84828501611175565b91505092915050565b60006111c2826110c9565b9050919050565b6111d2816111b7565b82525050565b60006020820190506111ed60008301846111c9565b92915050565b60008115159050919050565b611208816111f3565b82525050565b600060208201905061122360008301846111ff565b92915050565b611232816111f3565b811461123d57600080fd5b50565b60008135905061124f81611229565b92915050565b6000806040838503121561126c5761126b611159565b5b600061127a85828601611175565b925050602061128b85828601611240565b9150509250929050565b61129e816111b7565b81146112a957600080fd5b50565b6000813590506112bb81611295565b92915050565b600080604083850312156112d8576112d7611159565b5b60006112e685828601611175565b92505060206112f7858286016112ac565b9150509250929050565b6000806000806080858703121561131b5761131a611159565b5b600061132987828801611175565b945050602061133a878288016112ac565b935050604061134b87828801611175565b925050606061135c87828801611175565b91505092959194509250565b600082825260208201905092915050565b7f4f6e6c79206170707261697365722063616e2063616c6c2074686973206d657460008201527f686f640000000000000000000000000000000000000000000000000000000000602082015250565b60006113d5602383611368565b91506113e082611379565b604082019050919050565b60006020820190508181036000830152611404816113c8565b9050919050565b7f4f6e6c7920696e73706563746f722063616e2063616c6c2074686973206d657460008201527f686f640000000000000000000000000000000000000000000000000000000000602082015250565b6000611467602383611368565b91506114728261140b565b604082019050919050565b600060208201905081810360008301526114968161145a565b9050919050565b7f5468652073616c6520686173206265656e2064656e69656420627920696e737060008201527f6563746f72000000000000000000000000000000000000000000000000000000602082015250565b60006114f9602583611368565b91506115048261149d565b604082019050919050565b60006020820190508181036000830152611528816114ec565b9050919050565b7f5468652073616c6520686173206265656e2064656e696564206279206170707260008201527f6169736572000000000000000000000000000000000000000000000000000000602082015250565b600061158b602583611368565b91506115968261152f565b604082019050919050565b600060208201905081810360008301526115ba8161157e565b9050919050565b7f427579657220686173206e6f7420617070726f766564207468652073616c6500600082015250565b60006115f7601f83611368565b9150611602826115c1565b602082019050919050565b60006020820190508181036000830152611626816115ea565b9050919050565b7f53656c6c657220686173206e6f7420617070726f766564207468652073616c65600082015250565b6000611663602083611368565b915061166e8261162d565b602082019050919050565b6000602082019050818103600083015261169281611656565b9050919050565b7f4c656e64657220686173206e6f7420617070726f766564207468652073616c65600082015250565b60006116cf602083611368565b91506116da82611699565b602082019050919050565b600060208201905081810360008301526116fe816116c2565b9050919050565b7f4e6f742073756666696369656e742066756e647320696e2074686520636f6e7460008201527f7261637400000000000000000000000000000000000000000000000000000000602082015250565b6000611761602483611368565b915061176c82611705565b604082019050919050565b6000602082019050818103600083015261179081611754565b9050919050565b600081905092915050565b50565b60006117b2600083611797565b91506117bd826117a2565b600082019050919050565b60006117d3826117a5565b9150819050919050565b7f46756e6473206e6f74207472616e736665727265640000000000000000000000600082015250565b6000611813601583611368565b915061181e826117dd565b602082019050919050565b6000602082019050818103600083015261184281611806565b9050919050565b600060608201905061185e60008301866111c9565b61186b60208301856111c9565b611878604083018461112f565b949350505050565b7f4f6e6c792073656c6c65722063616e2063616c6c2074686973206d6574686f64600082015250565b60006118b6602083611368565b91506118c182611880565b602082019050919050565b600060208201905081810360008301526118e5816118a9565b9050919050565b7f4f6e6c792062757965722063616e2063616c6c2074686973206d6574686f6400600082015250565b6000611922601f83611368565b915061192d826118ec565b602082019050919050565b6000602082019050818103600083015261195181611915565b905091905056fea2646970667358221220504d6b89b5d4f10b3a3e9ae8119ca5fce08475b276b72bb3e2c7f729a6d71e2764736f6c63430008110033",
  "linkReferences": {},
  "deployedLinkReferences": {}
}